:1000000000000420190200000102000003020000A9
:1000100005020000070200000902000000000000C5
:100020000000000000000000000000000B020000C3
:100030000D020000000000000F020000110200008D
:100040001302000013020000A125000013020000AB
:1000500013020000130200009924000013020000A4
:10006000130200001302000013020000130200003C
:10007000130200001302000013020000130200002C
:1000800013020000AD56000013020000130200002E
:10009000130200001302000013020000130200000C
:1000A00013020000130200001302000013020000FC
:1000B0001302000013020000000000000000000016
:1000C00013020000130200001302000013020000DC
:1000D00013020000130200001302000013020000CC
:1000E00013020000130200001302000000000000D1
:1000F00000000000130200000000000013020000D6
:1001000000000000000000000000000000000000EF
:1001100000000000000000000000000000000000DF
:1001200000000000000000000000000000000000CF
:1001300000000000000000000000000000000000BF
:1001400000000000000000000000000000000000AF
:10015000000000000000000000000000000000009F
:10016000000000000000000000000000000000008F
:10017000000000000000000000000000000000007F
:10018000000000000000000000000000000000006F
:10019000000000000000000000000000000000005F
:1001A000000000000000000000000000000000004F
:1001B000000000000000000000000000000000003F
:1001C000000000000000000000000000000000002F
:1001D000000000000000000000000000000000001F
:1001E000000000000000000000000000000000000F
:1001F00000000000000000000000000000000000FF
:10020000FEE7FEE7FEE7FEE7FEE7FEE7FEE7FEE7C6
:10021000FEE7FEE700F002B8FFF7FCBF0F484FF023
:100220000701884385460E4880470E48016841F41F
:1002300070010160BFF34F8FBFF36F8F00F01AB8EA
:1002400009480A490A4A884207D0521A05D0037859
:1002500001300B700131013AF9D1704700000420E0
:10026000B114000088ED00E03083000000000020A1
:1002700000000020344935480A1A02D00722914371
:100280008D46334933480A1A06D00722914381F339
:100290000988022282F314882F483049304A00F03E
:1002A00041F830483049314A00F03CF83048314993
:1002B000314A00F037F831483149324A00F032F81B
:1002C00031483249324A00F02DF832483249334A37
:1002D00000F028F832483349334A00F023F8334815
:1002E0003349002200F029F832483349002200F057
:1002F00024F832483249091A07F0D6FF314A9047AC
:100300001F482049884205D00268043003B4904752
:1003100003BCF7E700208646EC46002000212A4A6D
:100320009047FEE7884207D0521A05D00378013083
:100330000B700131013AF9D17047884202D0027046
:100340000130FAE7704700000000042000E00320BD
:100350000000042000000420D897000000000020C6
:10036000E0000020CC030000CC030000BC820000B1
:10037000D89700000000002000000020308300001B
:1003800030830000308300003083000030830000A1
:10039000308300003083000030830000D5970000D8
:1003A000B8980000E0000020E0000020E0000020FD
:1003B000EC0B0020EC0B0020EC0B0020EC0B0020E1
:0C03C000EC2B002041020000E5040000CE
:1003CC0000B585B003468DF807309DF807300E2B2D
:1003DC0002D00F2B0FD03EE0204B1B78002B06D009
:1003EC001E4B1B78013BDAB21C4B1A7012E01B4BF4
:1003FC0017221A700EE0194B1B78172B06D0174BCF
:10040C001B780133DAB2154B1A7002E0134B002241
:10041C001A7000BF114B1B78184600F025FE039094
:10042C000F4A104BD31ADB081B0443F003030B4A8F
:10043C00127811460C4A52F821200C49184606F045
:10044C00EBFF039B0293029B002B04D0084A602114
:10045C00029804F0D5F805B05DF804FBE00000202C
:10046C00DC820000BC82000000000020A885000097
:10047C00AC8500004FF080430122C3F818254FF0E3
:10048C0080430022C3F804214FF0804301229A607C
:10049C0000BF4FF08043D3F80431002BF9D000BFDC
:1004AC0000BF704700B583B00949032000F0F6FD8A
:1004BC000190019B0093009B002B04D0054A7A21EC
:1004CC00009804F09DF800BF03B05DF804FB00BF7A
:1004DC00CD030000AC85000000B585B0FFF7CAFF66
:1004EC0004F0CCFB0390039B0293029B002B04D0E3
:1004FC00154A8621029804F083F84FF480410020BD
:10050C0006F0B2FC0190019B002B04D00E4A88210E
:10051C00019804F075F806F029FC0C4A0C4BD31A20
:10052C00DB081B0443F003030A49184606F066FF78
:10053C00FFF7B8FF00BF06F0BDFF0346002BFAD152
:10054C0040BF20BF20BFF6E7AC850000DC82000076
:10055C00BC820000D085000000B583B00190019BE7
:10056C001B68184600F002F90346002B04D10B4916
:10057C004FF4F67005F0A2F8019B1B681F2B02D8F4
:10058C004FF0A04306E0019B1B6803F01F02019B88
:10059C001A60034B184603B05DF804FBE8850000B5
:1005AC000003005000B585B00190084611461A466C
:1005BC0003468DF803300B468DF8023013468DF848
:1005CC00013001AB1846FFF7C7FF03909DF80320DD
:1005DC009DF802305B001A439DF801309B001A43D2
:1005EC009DF818301B0242EA03019DF81C301B04D5
:1005FC00019A1943039B02F5E07243F8221000BFE5
:10060C0005B05DF804FB00B585B0039000230193A1
:10061C00002300930023012201210398FFF7C2FF5E
:10062C0000BF05B05DF804FB00B585B003900B4628
:10063C008DF80B309DF80B300022019200220092B5
:10064C00002200210398FFF7ADFF00BF05B05DF855
:10065C0004FB00B585B0019001AB1846FFF77CFF99
:10066C000390019B012202FA03F31946039800F050
:10067C0069F800BF05B05DF804FB00B585B00190CA
:10068C0001AB1846FFF768FF0390019B012202FAA9
:10069C0003F31946039800F05FF800BF05B05DF84E
:1006AC0004FB00B585B0019001AB1846FFF754FF71
:1006BC000390039BD3F804350293029BDA43019B0E
:1006CC00012101FA03F31A40039BC3F80825019B8F
:1006DC0001229A40029B1A40039BC3F80C2500BFD1
:1006EC0005B05DF804FB00B583B001900091009B50
:1006FC00002B03D10198FFF7C0FF02E00198FFF730
:10070C00A8FF00BF03B05DF804FB00B585B00190F5
:10071C0001AB1846FFF720FF0390039800F00AF88E
:10072C000246019B22FA03F303F00103184605B0BD
:10073C005DF804FB82B00190019BD3F80435184698
:10074C0002B0704782B001900091019B009AC3F8EF
:10075C00082500BF02B0704782B001900091019B48
:10076C00009AC3F80C2500BF02B0704784B001900A
:10077C00019B5B09029300230393029B002B03D084
:10078C00029B012B04D007E04FF0FF33039303E0EF
:10079C004FF6FF73039300BF019B03F01F030193FC
:1007AC00039A019B22FA03F303F00103002B14BFFD
:1007BC0001230023DBB2184604B0704700B585B0A6
:1007CC000190019B032B03D911493A2004F076FFC9
:1007DC00104A019B13441B781846FFF796FF0346FB
:1007EC00002B14BF012300238DF80F309DF80F3020
:1007FC00002B14BF01230023DBB283F00103DBB217
:10080C0003F00103DBB2184605B05DF804FB00BF32
:10081C002C8600007086000000B583B00190019B0F
:10082C00032B03D90749412004F048FF064A019BDA
:10083C0013441B7800211846FFF755FF00BF03B087
:10084C005DF804FB2C8600007086000000B583B0B8
:10085C000190019B032B03D90749472004F02EFF7D
:10086C00064A019B13441B7801211846FFF73BFFF6
:10087C0000BF03B05DF804FB2C86000070860000FE
:10088C0000B583B00023019305E00198FFF7DEFF6C
:10089C00019B01330193019B032BF6D900BF00BFD1
:1008AC0003B05DF804FB00B583B00023019305E0B1
:1008BC000198FFF7B1FF019B01330193019B032BBF
:1008CC00F6D900BF00BF03B05DF804FB00B583B0E0
:1008DC000190019B032B03D907495F2004F0EEFE26
:1008EC00064A019B13441B781846FFF7DAFE00BF3B
:1008FC0003B05DF804FB00BF2C860000708600007E
:10090C0000B583B00023019309E0094A019B13440D
:10091C001B781846FFF777FE019B01330193019B6F
:10092C00032BF2D9FFF7ACFF00BF03B05DF804FB5B
:10093C007086000000B583B0002301930AE0094AD9
:10094C00019B13441B7803211846FFF76DFE019B96
:10095C0001330193019B032BF1D900BF00BF03B0FE
:10096C005DF804FB7486000084B001904FF0FF33F7
:10097C000293002303930DE00A4A039B13441B7854
:10098C001A46019B934202D1039B029305E0039B01
:10099C0001330393039B032BEED9029B184604B03F
:1009AC00704700BF7486000000B583B00190019BB6
:1009BC0003F00103002B01D0FFF7A2FF019B03F012
:1009CC000203002B01D0FFF7B5FF00BF03B05DF8A9
:1009DC0004FB000000B587B003460A468DF80730CB
:1009EC0013468DF8063000238DF81730002304933E
:1009FC009DF807301846FFF7B7FF0490049B032BB4
:100A0C0062D89DF80630022B52D0022B5CDC002BF6
:100A1C0031D0012B58D13549049A13465B0013444D
:100A2C000B441B788DF817303049049A13465B0041
:100A3C0013440B4401331B78002B0ED02C4B2D4A46
:100A4C004FF48041184604F08BF90390039B002B64
:100A5C0003D1284A9DF8073013702449049A134691
:100A6C005B0013440B4402331978234A049B134450
:100A7C000A461A7028E01E4B184604F0A9F91E4AC3
:100A8C00049B134419781948049A13465B001344C9
:100A9C00034402331B78994215D11449049A134626
:100AAC005B0013440B4402331B788DF817300AE0BB
:100ABC000E49049A13465B0013440B4401331B7814
:100ACC008DF8173000E000BF9DF81730002B09D0CF
:100ADC000A4B1B68002B05D0084B1B689DF8172090
:100AEC001046984700BF07B05DF804FB34010020A6
:100AFC004001002060010020640100203001002032
:100B0C0000B583B00190019B1B7802211846FFF7BA
:100B1C0061FF00BF03B05DF804FB000000B583B0BB
:100B2C000C4B1B78002B0FD00023019308E0019B8A
:100B3C00022B02D00198FFF789FE019B0133019330
:100B4C00019B032BF3D901E0FFF79AFE00BF03B022
:100B5C005DF804FBE80000202DE9D04F92B003466D
:100B6C008DF83F300023119300231093CC4B1B784E
:100B7C00002B04D0CA4A00231370FFF7CFFF9DF857
:100B8C003F30172B00F23F8201A252F823F000BF36
:100B9C00FD0B0000150C0000150C0000B10C000042
:100BAC004D0D0000C90D00005D0E00007D0E000013
:100BBC008D0E0000B90E0000D70E0000F50E0000DF
:100BCC00130F0000210F0000210F0000210F000067
:100BDC00210F0000210F0000B50F0000C30F000013
:100BEC00D70F0000EB0F00000510000005100000EF
:100BFC00FFF794FFAB4B184604F0EAF81190AA4AA1
:100C0C009DF83F301370FFE10020FFF7D7FD03463E
:100C1C00002B0DD00020FFF719FE9DF83F30022B62
:100C2C0002D14FF4E16301E04FF47A6310930BE0CF
:100C3C000020FFF7F1FD9DF83F30022B01D1C823B6
:100C4C0001E04FF4C8731093974A9DF83F3013702E
:100C5C00944C109B0022009301924FF000024FF035
:100C6C000003DDE900673946CB03314643EA5143C3
:100C7C003146CA0312F57A71029143F100030393D2
:100C8C004FF4FA624FF00003DDE9020107F06EF950
:100C9C0002460B46134600221946204604F060F823
:100CAC001190B1E10020FFF789FD0346002B0DD018
:100CBC000020FFF7CBFD9DF83F30032B02D14FF402
:100CCC00487301E04FF47A6310930BE00020FFF7B8
:100CDC00A3FD9DF83F30032B01D1C82301E04FF455
:100CEC00C8731093704A9DF83F3013706D4C109B75
:100CFC000022049305924FF000024FF00003DDE94F
:100D0C0004673946CB03314643EA51433146CA03A3
:100D1C0012F57A71069143F1000307934FF4FA62CE
:100D2C004FF00003DDE9060107F020F902460B46FF
:100D3C00134600221946204604F012F8119063E184
:100D4C000020FFF73BFD0346002B06D00020FFF7E9
:100D5C007DFD4FF47A63109305E00020FFF75CFDF6
:100D6C004FF4C8731093504A9DF83F3013704D4C9C
:100D7C00109B00229A4693464FF000024FF000035E
:100D8C004FEACB3343EA5A434FEACA3212F57A712F
:100D9C00089143F1000309934FF4FA624FF00003FA
:100DAC00DDE9080107F0E2F802460B461346002283
:100DBC001946204603F0D4FF119025E10020FFF7DF
:100DCC00FDFC0346002B0CD00020FFF73FFD9DF8E7
:100DDC003F30052B01D1C82301E04FF47A63109307
:100DEC000BE00020FFF718FD9DF83F30052B01D1DB
:100DFC00C82301E04FF4C87310932B4A9DF83F3081
:100E0C001370284C109B0022984691464FF000021C
:100E1C004FF000034FEAC93343EA58434FEAC83254
:100E2C0012F57A710A9143F100030B934FF4FA62B5
:100E3C004FF00003DDE90A0107F098F802460B4673
:100E4C00134600221946204603F08AFF1190DBE07E
:100E5C000020FFF73BFD144A9DF83F301370114BF7
:100E6C00002240F26661184603F07AFF1190CBE045
:100E7C000020FFF7D1FC0C4A9DF83F301370C3E003
:100E8C00074B01221A700120FFF720FD054B0022B1
:100E9C0040F26661184603F063FF1190B4E000BFA6
:100EAC00E2000020F0000020E1000020594B01225C
:100EBC001A700120FFF70AFD574B00224FF4005126
:100ECC00184603F04DFF11909EE0524B01221A7010
:100EDC000120FFF7FBFC504B002240F266611846E4
:100EEC0003F03EFF11908FE04A4B01221A70012053
:100EFC00FFF7ECFC484B00224FF40051184603F06E
:100F0C002FFF119080E0FFF7CEFC444A9DF83F3054
:100F1C00137079E0424B184603F05AFF11909DF87C
:100F2C003F30C3F111031093109B002B35D0119B54
:100F3C00002B32D1109B012B28D9394C109B9BB222
:100F4C001A46C82302FB03F3DA171E4617464FF066
:100F5C0000024FF00003FB0343EA5643F20312F581
:100F6C007A710C9143F100030D934FF4FA624FF038
:100F7C000003DDE90C0106F0F9FF02460B461346AF
:100F8C0000221946204603F0EBFE11900220FFF7D9
:100F9C0043FC244B01221A7036E00220FFF756FC6A
:100FAC00204B00221A702FE0FFF7B8FD1B4A9DF86A
:100FBC003F30137028E0FFF7B1FD0020FFF72CFC49
:100FCC00164A9DF83F3013701EE0FFF7A7FD012075
:100FDC00FFF722FC114A9DF83F30137014E0FFF725
:100FEC009DFD0020FFF718FC0120FFF715FC0B4AB4
:100FFC009DF83F30137007E0FFF755FC074A9DF84A
:10100C003F30137000E000BF119B184612B0BDE8D2
:10101C00D08F00BFE2000020F0000020E100002093
:10102C0010010020E800002000B583B00190074BB0
:10103C001B6803F00103002B04D0054B1B781846EA
:10104C00FFF78AFD00BF03B05DF804FBE40000204D
:10105C00E100002000B583B001900220FFF736FCC0
:10106C0000BF03B05DF804FB00B585B003468DF8F6
:10107C00073000230393084B1B6803F00103002B7C
:10108C0005D09DF807301846FFF766FD0390039BCB
:10109C00184605B05DF804FBE400002000B585B0EF
:1010AC0001900091002303932A4A019B13602A4A62
:1010BC00009B1360019B03F00203002B2AD000233A
:1010CC00029308E001220121029800F055F80390E8
:1010DC00029B01330293029B032B02D8039B002B30
:1010EC00F0D0039B002B06D140F2333204211B4875
:1010FC0003F086F90390039B002B02D103F008FA4E
:10110C000390039B002B05D1154A0021154803F0D1
:10111C00F3FD0390019B03F00103002B14D001207D
:10112C00FFF742FC039B002B05D10F4A00210F480F
:10113C0003F0E2FD0390039B002B05D10C4A012127
:10114C000C4803F0D9FD0390039B184605B05DF8DD
:10115C0004FB00BFE4000020300100208486000066
:10116C000D0B000080860000351000007886000012
:10117C00611000007C86000084B001900B468DF855
:10118C00033013468DF8023000230393019B032B8D
:10119C003CD89DF80230012B0BD19DF80330012B6C
:1011AC0004D1019BDBB20E33DBB200E000238DF8DF
:1011BC0002309DF80330022B0FD0022B23DC002BC6
:1011CC0016D0012B1FD11449019A13465B0013440E
:1011DC000B449DF802201A701AE00F49019A13462D
:1011EC005B0013440B4401339DF802201A700FE08E
:1011FC000949019A13465B0013440B4402339DF8D2
:10120C0002201A7004E00723039301E007230393E1
:10121C00039B184604B0704734010020BFF34F8F76
:10122C0000BF064BDB6803F4E0620449044B134334
:10123C00CB60BFF34F8F00BF00BFFDE700ED00E0B8
:10124C000400FA0582B0124B1B680193114B1B680A
:10125C000093019B082B17D1009B032B12D801A2E2
:10126C0052F823F081120000851200008912000050
:10127C008D120000012308E0012306E0012304E0A5
:10128C00012302E0012300E00023184602B070475E
:10129C00300100103401001082B0124B1B68019316
:1012AC00114B1B680093019B082B17D1009B032B40
:1012BC0012D801A252F823F0D5120000D912000066
:1012CC00DD120000E1120000012308E0012306E01A
:1012DC00012304E0012302E0012300E0002318466F
:1012EC0002B07047300100103401001082B0124B74
:1012FC001B680193114B1B680093019B082B17D1A2
:10130C00009B032B12D801A252F823F029130000E2
:10131C002D1300003113000035130000012308E0E9
:10132C00002306E0002304E0002302E0002300E099
:10133C000023184602B07047300100103401001031
:10134C0082B0124B1B680193114B1B680093019BDD
:10135C00082B17D1009B032B12D801A252F823F0B3
:10136C007D13000081130000851300008913000019
:10137C00012308E0002306E0002304E0002302E040
:10138C00002300E00023184602B070473001001023
:10139C003401001082B0124B1B680193114B1B6877
:1013AC000093019B082B17D1009B032B12D801A291
:1013BC0052F823F0D1130000D5130000D91300000C
:1013CC00DD130000012308E0002306E0002304E005
:1013DC00002302E0002300E00023184602B070470F
:1013EC00300100103401001082B0124B1B680193C5
:1013FC00114B1B680093019B082B17D1009B032BEF
:10140C0012D801A252F823F0251400002914000070
:10141C002D14000031140000012308E0002306E025
:10142C00002304E0002302E0002300E00023184620
:10143C0002B07047300100103401001082B0124B22
:10144C001B680193114B1B680093019B082B17D150
:10145C00009B032B12D801A252F823F07914000040
:10146C007D1400008114000085140000012308E0A5
:10147C00012306E0012304E0012302E0012300E044
:10148C000023184602B070473001001034010010E0
:10149C00024B034A1A6000BF704700BF6000002077
:1014AC000090D00308B5FFF7CDFE0346002B0ED0FD
:1014BC004FF080430022C3F80C214FF080430022F0
:1014CC00C3F810214FF080430022C3F83825FFF7F2
:1014DC00E3FE0346002B76D04FF080537D4AD3F8C1
:1014EC000434C2F820354FF080537A4AD3F80834CC
:1014FC00C2F824354FF08053764AD3F80C34C2F836
:10150C0028354FF08053734AD3F81034C2F82C3579
:10151C004FF080536F4AD3F81434C2F830354FF083
:10152C0080536C4AD3F81834C2F834354FF08053DA
:10153C00684AD3F81C34C2F840354FF08053654AE2
:10154C00D3F82034C2F844354FF08053614AD3F8B5
:10155C002434C2F848354FF080535E4AD3F828340F
:10156C00C2F84C354FF080535A4AD3F82C34C2F899
:10157C0050354FF08053574AD3F83034C2F85435B5
:10158C004FF08053534AD3F83434C2F860354FF0DF
:10159C008053504AD3F83834C2F864354FF0805336
:1015AC004C4AD3F83C34C2F868354FF08053494A62
:1015BC00D3F84034C2F86C354FF08053454AD3F819
:1015CC004434C2F87035FFF791FE0346002B02D06D
:1015DC00414B424A1A60FFF7B3FE0346002B03D07F
:1015EC003F4BFB22C3F81825FFF7D4FE0346002B14
:1015FC000AD03C4B1B6823F00F023B4B1B6803F0DB
:10160C000F03384913430B60FFF7EEFE0346002B24
:10161C0003D0364B4FF400721A60FFF70FFF0346EE
:10162C00002B0DD04FF08043D3F8003403F00103AE
:10163C00002B05D04FF080436FF00102C3F800245B
:10164C002B4BD3F888302A4A43F47003C2F8883005
:10165C00BFF34F8F00BFBFF36F8F00BF4FF010234E
:10166C00D3F80032002B05DB4FF01023D3F80432F3
:10167C00002B2BDA1F4B0122C3F8042500BF1D4B96
:10168C00D3F80034002BFAD04FF010231222C3F8F9
:10169C00002200BF174BD3F80034002BFAD04FF0C8
:1016AC0010231222C3F8042200BF124BD3F80034CB
:1016BC00002BFAD00F4B0022C3F8042500BF0D4BB2
:1016CC00D3F80034002BFAD0FFF7A8FDFFF7E0FEAB
:1016DC0000BF08BD00C000408C560040488103008C
:1016EC0000F00040E40E004058020010409602400A
:1016FC0000ED00E000E0014000B589B001900091E0
:10170C00009B0793019B1B788DF80C30019B5B6849
:10171C000493019B9B68DBB28DF81430019BDB6852
:10172C000693074A079B52F823300649079A51F84B
:10173C00221003AA1046984700BF09B05DF804FBBD
:10174C00680100207001002000B589B00190009163
:10175C00009B0793019B1B788DF80C30019B5B68F9
:10176C000493019B9B68DBB28DF81430019BDB6802
:10177C000693074A079B52F823300649079A51F8FB
:10178C00221003AA1046984700BF09B05DF804FB6D
:10179C00680100207001002030B58FB003900291D9
:1017AC000192039B1B780C932C490C9B019A41F8DA
:1017BC002320029B1A692A490C9B41F823200C9B7D
:1017CC00012B07D1029B5B7F002B03D1254976208F
:1017DC0003F074FF029B5B7F1946234A0C9B134456
:1017EC000A461A70029B04AC1D460FCD0FC495E837
:1017FC000F0084E80F000C9B089300230D93039BB0
:10180C001B781A46184B9B5C002B0DD0039B181DA4
:10181C00019B002B01D0154A00E0002204AB1946B5
:10182C0002F02AF90D9014E0039B1B781A460E4B1C
:10183C009B5C002B0DD1039B03F10C00019B002B37
:10184C0001D00B4A00E0002204AB194601F098FAD3
:10185C000D900D9B18460FB030BD00BF68010020E5
:10186C0070010020A48600007801002005170000FC
:10187C005517000082B003468DF807309DF90730EC
:10188C00002B0CDB9DF8073003F01F0205499DF976
:10189C0007305B09012000FA02F241F8232000BF57
:1018AC0002B0704700E100E082B0034600918DF871
:1018BC0007309DF90730002B0ADB009BDAB20C498C
:1018CC009DF907305201D2B20B4483F800230BE090
:1018DC00009BDAB207499DF8073003F00F03043B75
:1018EC005201D2B20B441A7600BF02B0704700BF4F
:1018FC0000E100E000ED00E082B00190019B1B0BC9
:10190C005BB2184602B0704700B583B003460A4676
:10191C008DF8073013468DF806309DF80630072BEE
:10192C0003D908496B2003F0C9FE9DF806209DF9E8
:10193C00073011461846FFF7B7FF00BF03B05DF83C
:10194C0004FB00BFF486000000B583B003468DF89D
:10195C0007309DF907301846FFF78CFF00BF03B026
:10196C005DF804FB00B583B00346ADF80630BDF856
:10197C000630184600F026F803461B68012B0CBFF6
:10198C0001230023DBB2184603B05DF804FB00B55D
:10199C0085B00346ADF80630BDF80630184600F0A9
:1019AC0011F803461A4600231360BDF8063018469A
:1019BC0000F008F803461B680393039B00BF05B0B7
:1019CC005DF804FB82B00346ADF80630BDF8063076
:1019DC0003F1804303F5C043184602B07047000082
:1019EC0082B00190034A019BC2F8043300BF02B0DD
:1019FC00704700BF0060004082B00190034BD3F8E9
:101A0C000423019B1340184602B07047006000404D
:101A1C0082B00190084A019B03F5A27352F823305F
:101A2C00054943F00102019B03F5A27341F8232001
:101A3C0000BF02B0704700BF0060004084B003904C
:101A4C00029113468DF80730144A039B03F5A273D9
:101A5C0052F82330114923F44F3323F44073039A83
:101A6C0002F5A27241F822300C4A039B03F5A273D3
:101A7C0052F82320029B1B0203F47C519DF8073083
:101A8C001B0403F440330B4304491A43039B03F533
:101A9C00A27341F8232000BF04B0704700600040DF
:101AAC0082B00190054A019B03F5A27352F82330D2
:101ABC001B0A03F03F03184602B070470060004059
:101ACC0082B00190064A019B03F5A27352F82330B1
:101ADC001B0C03F00303DBB2184602B0704700BFC7
:101AEC000060004000B583B00190019B1B68184654
:101AFC0000F02AF90346002B04D10B494FF4F67081
:101B0C0003F0DCFD019B1B681F2B02D84FF0A04398
:101B1C0006E0019B1B6803F01F02019B1A60034B3C
:101B2C00184603B05DF804FB388700000003005032
:101B3C0000B585B00190084611461A4603468DF84B
:101B4C0003300B468DF8023013468DF8013001AB93
:101B5C001846FFF7C7FF03909DF803209DF802304D
:101B6C005B001A439DF801309B001A439DF8183016
:101B7C001B0242EA03019DF81C301B04019A194315
:101B8C00039B02F5E07243F8221000BF05B05DF82C
:101B9C0004FB00B585B003900B468DF80B309DF817
:101BAC000B300022019200220092002200210398A7
:101BBC00FFF7BEFF00BF05B05DF804FB00B585B0B4
:101BCC00019001AB1846FFF78DFF0390019A039B20
:101BDC0002F5E07253F8223023F002030293019ACB
:101BEC00039B02F5E072029943F8221000BF05B086
:101BFC005DF804FB00B585B001900B468DF8033001
:101C0C0001AB1846FFF76EFF0390019A039B02F598
:101C1C00E07253F82230019A23F44031039B02F511
:101C2C00E07243F82210019A039B02F5E07253F81C
:101C3C0022309DF8032012041146019A1943039B8C
:101C4C0002F5E07243F8221000BF05B05DF804FB0A
:101C5C0000B585B0019001AB1846FFF743FF039028
:101C6C00039800F020F80246019B22FA03F303F0DC
:101C7C000103184605B05DF804FB00B585B0019072
:101C8C0001AB1846FFF72EFF0390019A039B02F558
:101C9C00E07253F822301B0C03F00303DBB218463E
:101CAC0005B05DF804FB82B00190019BD3F81035B0
:101CBC00184602B07047000088B003900291019260
:101CCC00164A05AB92E8030083E80300039B0793D5
:101CDC0019E0079B9B0020336B4453F80C3CD3F862
:101CEC002025019B1A60079B9B0020336B4453F803
:101CFC000C3C019A1268C3F82025019B0433019314
:101D0C00079B01330793039A029B1344079A9A4249
:101D1C00DFD300BF00BF08B0704700BF7C87000056
:101D2C0000B585B0019001AB1846FFF7DBFE0390C0
:101D3C00019B012202FA03F31A46039BC3F82025E8
:101D4C0000BF05B05DF804FB84B00190019B5B09FA
:101D5C00029300230393029B002B03D0029B012BC5
:101D6C0004D007E04FF0FF33039303E04FF6FF730B
:101D7C00039300BF019B03F01F030193039A019B84
:101D8C0022FA03F303F00103002B14BF01230023F9
:101D9C00DBB2184604B0704784B001900091009BF0
:101DAC000393019BDB080293019B03F00703019350
:101DBC000122019B02FA03F30399029A0A44127856
:101DCC001340184604B0704784B001900091009BFA
:101DDC000393019BDB080293019B03F00703019320
:101DEC00039A029B13441B785AB20121019B01FAFE
:101DFC0003F35BB2134359B2039A029B1344CAB266
:101E0C001A7000BF04B0704782B001900C4A019B5D
:101E1C001344303393F90030002B09DB084A019B43
:101E2C001344303393F90030072B01DC012300E01D
:101E3C00002303F00103DBB2184602B0704700BF69
:101E4C007C01002082B00190064A019B1344303380
:101E5C0093F90030072BCCBF01230023DBB21846CB
:101E6C0002B070477C01002082B00190064A019BB1
:101E7C001344303393F90030DB43DBB2DB09DBB2C4
:101E8C00184602B0704700BF7C01002084B003905C
:101E9C00029101928DF80330029B59B20E4A039BBA
:101EAC00134430330A461A700B49029B019A41F8CD
:101EBC0023209DF8033083F00103DBB2002B08D004
:101ECC00029B083B039A51B2034A13440A4683F817
:101EDC00602000BF04B070477C01002082B00190EC
:101EEC00044A019B13443033FF221A7000BF02B026
:101EFC00704700BF7C01002000B583B001900449FD
:101F0C000198FFF761FF00BF03B05DF804FB00BF51
:101F1C00E001002082B00190044A019B134430334D
:101F2C0093F90030184602B0704700BF7C010020C6
:101F3C0082B00190034A019B52F82330184602B03C
:101F4C00704700BF7C01002084B00190074A019BC0
:101F5C001344603393F900308DF80F309DF80F3037
:101F6C0023F0C003184604B0704700BF7C0100206A
:101F7C0084B00190074A019B1344603393F90030FD
:101F8C008DF80F309DF80F309B09DBB2184604B06A
:101F9C00704700BF7C01002000B589B0039002910E
:101FAC0013468DF80730FF238DF81F309DF807304E
:101FBC00002B01D0002300E0082305939DF8073087
:101FCC00002B01D0082300E00C230493059B0693FF
:101FDC0014E00F4A069B52F82330B3F1FF3F0AD1AD
:101FEC009DF80730029A06990398FFF74FFF069B5E
:101FFC008DF81F3006E0069B01330693069A049B6E
:10200C009A42E6D39DF91F30184609B05DF804FBDF
:10201C007C01002082B003468DF807309DF8073014
:10202C00094A4FF0FF3142F823109DF80730072B77
:10203C0007D99DF80730083B034A1344FF2283F865
:10204C00602000BF02B070477C01002000B583B057
:10205C002D4B93F86A30002B03D008230093009B80
:10206C004EE000238DF8073011E09DF8073018463C
:10207C00FFF76AFE0346002B04D09DF80730184684
:10208C00FFF72CFF9DF8073001338DF807309DF8D2
:10209C0007302F2BE9D900238DF8073009E09DF884
:1020AC0007301846FFF7B6FF9DF8073001338DF85F
:1020BC0007309DF807300B2BF1D90622002113486D
:1020CC0006F0BCF81248FFF717FC03460621184629
:1020DC00FFF71AFC0E48FFF70FFC03461846FFF7F4
:1020EC0033FC4FF4BE70FFF752FC4FF00040FFF78B
:1020FC0077FC054B012283F86A2000230093009B98
:10210C00184603B05DF804FB7C010020E0010020C0
:10211C0000600040044B93F86A30002B14BF01237D
:10212C000023DBB2184670477C01002000B587B055
:10213C000390029101920398FFF706FE0346002BD1
:10214C0004D136494FF40C7003F0B8FA0023059310
:10215C000398FFF789FE0346002B02D00823059352
:10216C0057E0029B9B78C3F34003DBB21A460199FC
:10217C000398FFF711FF03468DF813309DF91330C8
:10218C00B3F1FF3F43D0029B9B78C3F38003DBB2D8
:10219C0083F00103DBB2002B13D0029B9B7803F07E
:1021AC000103DBB2002B03D00398FFF707FD05E01A
:1021BC00029B5B7819460398FFF7EBFC0398FFF73B
:1021CC009BFE029B9B7803F00203DBB2002B08D032
:1021DC009DF91300029B1B781A460399FFF72EFCFE
:1021EC0017E09DF91330083B0D4A134493F9601026
:1021FC00029B1B789B015AB29DF91330083B0A4392
:10220C0051B2074A13440A4683F8602001E00423C4
:10221C000593059B184607B05DF804FB8C870000FE
:10222C007C01002000B589B001900B468DF803307D
:10223C000198FFF789FD0346002B04D13A494FF46E
:10224C00187003F03BFA0198FFF70EFE0346002BC3
:10225C0004D1354940F2612003F030FA0198FFF7C0
:10226C00F1FD0346002B2AD00198FFF753FE0346DD
:10227C00083B1846FFF77CFE03468DF80F309DF89F
:10228C000F30032B0BD10198FFF7E2FC0346002B18
:10229C0001D0032300E002238DF81F3008E09DF8E5
:1022AC000F30012B01D1022300E003238DF81F30E6
:1022BC009DF81F3019460198FFF79CFC30E00198FF
:1022CC00FFF7A2FD0346002B2AD00198FFF722FE50
:1022DC0003460693069B9BB240339BB29B00ADF822
:1022EC001630069B1846FFF793FBBDF816301846C0
:1022FC00FFF74DFB9DF80330002B11D00198FFF731
:10230C0009FE03461846FFF713FE0490049B002BAE
:10231C0006D00122069B02FA03F31846FFF760FB76
:10232C0000BF09B05DF804FB8C87000000B583B0DA
:10233C0001900198FFF708FD0346002B04D10949D1
:10234C0040F2AF2003F0BAF90198FFF781FC034685
:10235C00002B14BF01230023DBB2184603B05DF839
:10236C0004FB00BF8C87000000B585B00190019A7A
:10237C0002210020FFF7A0FC002303930BE0039B3A
:10238C009B00019A13441B68002B01D0012306E02B
:10239C00039B01330393039B012BF0D900231846B5
:1023AC0005B05DF804FB000000B587B00190002378
:1023BC0005935BE0344A059B1344603393F900307A
:1023CC00B3F1FF3F4ED00598FFF7BEFD0490019985
:1023DC000498FFF7E1FC0346002B44D00598FFF767
:1023EC00C7FD03468DF80F300498FFF746FC0346F3
:1023FC008DF80E309DF80E30022B01D1032300E036
:10240C0002238DF80D309DF80D3019460498FFF716
:10241C00F1FB0498FFF784FC0498FFF77BFD03465F
:10242C001846FFF785FD0290029B002B1BD09DF8F0
:10243C000F30032B0FD09DF80E30022B03D19DF8DB
:10244C000F30012B07D09DF80E30032B0BD19DF8CC
:10245C000F30022B07D19DF80F20029B11460498D8
:10246C00984700E000BF059B01330593059B032BA8
:10247C00A0D90198FFF778FF0346002B97D100BF36
:10248C0000BF07B05DF804FB7C01002000B58BB0E9
:10249C000023089301AB00221A605A604FF480733A
:1024AC00ADF81A30012309930023079321E0BDF8FE
:1024BC001A301846FFF756FA0346002B0ED009982F
:1024CC00FFF79AFA0346002B08D0BDF81A301846CD
:1024DC00FFF75DFA089A099B13430893099B5B006D
:1024EC000993BDF81A300433ADF81A30079B013349
:1024FC000793079B072BDAD94FF4BE70FFF732FA1C
:10250C000346002B0DD04FF4BE70FFF740FA089B2A
:10251C0043F00043089301AB1A4602210020FFF759
:10252C00CBFB089BDBB2002B29D0012309930023A2
:10253C00079321E0099A089B1340002B16D00798AB
:10254C00FFF7AEFA05900798FFF7BAFA03468DF835
:10255C0013300798FFF7ECFC0390039B002B05D07E
:10256C009DF81320039B114605989847099B5B0027
:10257C000993079B01330793079B072BDAD9089B19
:10258C00002B03DA01AB1846FFF70EFF00BF0BB0B0
:10259C005DF804FB08B5064B1B68002B03D10549FD
:1025AC00512003F08BF8024B1B68984708BD00BF05
:1025BC00E8010020E087000082B00190019B044AF2
:1025CC00934201D1034B00E00023184602B0704740
:1025DC0000200040E801002000B587B00190009178
:1025EC00019B002B03D11849772003F067F8019861
:1025FC00FFF7E2FF0590059B002B1ED000238DF802
:10260C001330002002F032FC059B1B79002B03D009
:10261C0001238DF8133005E0059B009A1A60059B89
:10262C0001221A71002002F035FC9DF81330002BAA
:10263C0003D011230393039B02E000230393039B1A
:10264C00184607B05DF804FBE087000000B585B0C4
:10265C000190019B002B03D10A499B2003F02EF81B
:10266C000198FFF7A9FF0390039B002B05D0039B58
:10267C0000221A60039B00221A7100BF05B05DF89E
:10268C0004FB00BFE087000082B003468DF80730E2
:10269C009DF90730002B0CDB9DF8073003F01F026F
:1026AC0005499DF907305B09012000FA02F241F857
:1026BC00232000BF02B0704700E100E082B0034667
:1026CC008DF807309DF90730002B13DB9DF8073090
:1026DC0003F01F0209499DF907305B09012000FA3C
:1026EC0002F2203341F82320BFF34F8F00BFBFF31A
:1026FC006F8F00BF00BF02B0704700BF00E100E069
:10270C0082B0034600918DF807309DF90730002BFD
:10271C000ADB009BDAB20C499DF907305201D2B2A8
:10272C000B4483F800230BE0009BDAB207499DF8B9
:10273C00073003F00F03043B5201D2B20B441A765C
:10274C0000BF02B0704700BF00E100E000ED00E008
:10275C0082B00190019B1B0B5BB2184602B0704714
:10276C0000B583B003460A468DF8073013468DF842
:10277C0006309DF80630072B03D908496B2002F070
:10278C009DFF9DF806209DF9073011461846FFF76E
:10279C00B7FF00BF03B05DF804FB00BF308800003A
:1027AC0000B583B003468DF807309DF90730184605
:1027BC00FFF76AFF00BF03B05DF804FB00B583B000
:1027CC0003468DF807309DF907301846FFF776FF62
:1027DC0000BF03B05DF804FB84B001900B46ADF86C
:1027EC000230BDF80230019A134400221A60BDF881
:1027FC000230019A13441B680393039B00BF04B07F
:10280C00704782B001900B46ADF80230BDF8023033
:10281C00019A13441B68002B14BF01230023DBB265
:10282C00184602B0704782B001900091019B009A4B
:10283C00C3F8042300BF02B0704782B0019000912E
:10284C00019BD3F80423009B1340002B14BF0123DE
:10285C000023DBB2184602B0704782B001900091A1
:10286C00019B009AC3F8082300BF02B0704784B0E4
:10287C000190019BD3F880340393019B039AC3F816
:10288C008024039B184604B0704782B00190019BD2
:10289C000422C3F8002500BF02B0704782B001903B
:1028AC00019B0022C3F8002500BF02B0704784B022
:1028BC00039002910192039B019AC3F81425039B88
:1028CC00029AC3F80C2500BF04B0704700B583B062
:1028DC0001904FF0FF324FF0FF310198FFF7E7FF07
:1028EC0000BF03B05DF804FB82B00190019BD3F8EC
:1028FC000C35184602B0704782B00190019BD3F89A
:10290C001435184602B0704782B00190019BD3F881
:10291C000835184602B0704782B00190019BD3F87D
:10292C001035184602B0704784B0039002910192A2
:10293C00039B029AC3F80825039B019AC3F8102540
:10294C0000BF04B0704700B583B001904FF0FF3268
:10295C004FF0FF310198FFF7E7FF00BF03B05DF8C0
:10296C0004FB82B00190019BD3F81835DBB21846FA
:10297C0002B0704782B001900B468DF803309DF881
:10298C000320019BC3F81C2500BF02B0704782B026
:10299C0001900B468DF803309DF80330019A1344D7
:1029AC0001221A6000BF02B0704782B001900B4642
:1029BC008DF8033013468DF802309DF803209DF8F6
:1029CC0002301343DBB21A46019BC3F86C2500BFDF
:1029DC0002B0704782B001900091019B009AC3F83D
:1029EC00242500BF02B0704700B583B00190019B55
:1029FC001B68184600F0A4F80346002B04D10B49C1
:102A0C004FF4F67002F05AFE019B1B681F2B02D884
:102A1C004FF0A04306E0019B1B6803F01F02019BD3
:102A2C001A60034B184603B05DF804FB7488000071
:102A3C000003005000B585B00190084611461A46B7
:102A4C0003468DF803300B468DF8023013468DF893
:102A5C00013001AB1846FFF7C7FF03909DF8032028
:102A6C009DF802305B001A439DF801309B001A431D
:102A7C009DF818301B0242EA03019DF81C301B0420
:102A8C00019A1943039B02F5E07243F8221000BF30
:102A9C0005B05DF804FB00B585B0039000230193ED
:102AAC00002300930023012201210398FFF7C2FFAA
:102ABC0000BF05B05DF804FB00B585B003900B4674
:102ACC008DF80B309DF80B30002201920022009201
:102ADC00002200210398FFF7ADFF00BF05B05DF8A1
:102AEC0004FB00B585B003900023019300230093F1
:102AFC000023012200210398FFF79CFF00BF05B0C3
:102B0C005DF804FB00B585B0019001AB1846FFF7EA
:102B1C006BFF0390019B012202FA03F31946039801
:102B2C0000F004F800BF05B05DF804FB82B0019022
:102B3C000091019B009AC3F8082500BF02B07047B2
:102B4C0084B00190019B5B09029300230393029BC9
:102B5C00002B03D0029B012B04D007E04FF0FF3376
:102B6C00039303E04FF6FF73039300BF019B03F045
:102B7C001F030193039A019B22FA03F303F0010351
:102B8C00002B14BF01230023DBB2184604B070479E
:102B9C0000B583B001900091009B1B68B3F1FF3F1F
:102BAC0009D0009B1B681846FFF7ACFF009B1B6805
:102BBC001846FFF770FF009B5B68B3F1FF3F05D031
:102BCC00009B5B6800211846FFF776FF019B1A6893
:102BDC00009B9B6919461046FFF7FCFE019B186889
:102BEC00009B597D009B1B7D1A46FFF7DEFE019B67
:102BFC001868009B1968009B5B681A46FFF757FE24
:102C0C00009B1B7D012B22D1009B9B68B3F1FF3FE6
:102C1C0005D0009B9B6800211846FFF74DFF009BD9
:102C2C00DB68B3F1FF3F09D0009BDB681846FFF768
:102C3C0069FF009BDB681846FFF72DFF019B1868A6
:102C4C00009BD968009B9B681A46FFF76DFE00BF7E
:102C5C0003B05DF804FB000000B583B001900B4697
:102C6C008DF80330019B1B684FF48E711846FFF7EB
:102C7C00B3FD019B1B684FF4A2711846FFF7ACFD26
:102C8C00019B1B680E491846FFF7CDFD019B1B6885
:102C9C001846FFF75DFD03461A469DF803301946AA
:102CAC001046FFF75DFD019B1B681846FFF750FDB2
:102CBC0003461846FFF774FD00BF03B05DF804FB34
:102CCC008000020000B583B00190019B1B6808498D
:102CDC001846FFF7C2FD019B1B681846FFF738FD2D
:102CEC0003461846FFF76AFD00BF03B05DF804FB0E
:102CFC008402020000B587B00190019B1B68184646
:102D0C00FFF7F2FD0590019B1B681846FFF7F4FDD9
:102D1C000490019B1B681846FFF7F6FD0390019B7E
:102D2C001B681846FFF7F8FD0290019B1B681846BC
:102D3C00FFF7CCFD019B1B681846FFF704FE059BB3
:102D4C00B3F1FF3F02D00598FFF7CBFE049BB3F124
:102D5C00FF3F02D00498FFF7C4FE029BB3F1FF3F84
:102D6C0002D00298FFF7BDFE039BB3F1FF3F02D0E8
:102D7C000398FFF7B6FE00BF07B05DF804FB000038
:102D8C0000B587B0039002910192029B002B03D1F6
:102D9C002D49AA2002F092FC039B1B791A462C2386
:102DAC0002FB03F3294A1344049300230593049B69
:102DBC0093F82A30002B03D008230593059B3EE0A3
:102DCC00039B1A68039B1B791946214B53F821303E
:102DDC0019461046FFF700FC0346002B03D01123C5
:102DEC000593059B2BE002990398FFF7D1FE049BFA
:102DFC00019A5A60029B1A69049B1A60049B5B68D7
:102E0C00002B05D0029B1B7F19460398FFF724FF6C
:102E1C00039B1B681846FFF738FD049B00229A6140
:102E2C00049B0022DA61049B002283F82920049B76
:102E3C0000225A61049B012283F82A20059B184624
:102E4C0007B05DF804FB00BFC0880000F001002053
:102E5C000C89000000B585B00190019B1B791A46C6
:102E6C002C2302FB03F3114A13440393019B1B68AD
:102E7C001846FFF713FD039B5B68002B02D00198EB
:102E8C00FFF720FF0198FFF735FF019B1B681846E1
:102E9C00FFF7DCFB039B002283F82A20039B002214
:102EAC005A6000BF05B05DF804FB00BFF0010020C4
:102EBC0000B585B0019000914FF48E710198FFF729
:102ECC008BFC009B9A68009B1B6A13441B788DF843
:102EDC000F30009B1B6A5A1C009B1A629DF80F3026
:102EEC0019460198FFF746FD00BF05B05DF804FBDD
:102EFC0000B585B001900091009B5B69039316E0CF
:102F0C00009B93F82830DBB2002B01D0002314E097
:102F1C004FF48E710198FFF774FC034683F00103A4
:102F2C00DBB2002BECD100990198FFF7C1FF009B9D
:102F3C001B6A039A9A42EBD80123184605B05DF838
:102F4C0004FB000000B587B0039002910192039B33
:102F5C001B791A462C2302FB03F33C4A13440493BB
:102F6C00049B93F82A30012B04D039494FF48C7010
:102F7C0002F0A4FB029B002B04D1354940F219103E
:102F8C0002F09CFB019B002B04D131494FF48D7056
:102F9C0002F094FB039800F05DF80346002B03D07D
:102FAC0011230593059B4CE0049B019A5A61049BE9
:102FBC00029A9A60049B00221A62049B002283F8F6
:102FCC00282000230593039B1B684FF48E71184631
:102FDC00FFF702FC039B1B6808211846FFF7D7FC80
:102FEC00039B1B6804991846FFF762FF049B5B6800
:102FFC00002B25D1039B1B6804991846FFF778FF1B
:10300C00034683F00103DBB2002B02D00F230593A0
:10301C0013E000BF039B1B684FF48E711846FFF73B
:10302C00F0FB034683F00103DBB2002BF2D1039BD0
:10303C001B680C211846FFF7AAFC049B00225A615E
:10304C00059B184607B05DF804FB00BFF00100209B
:10305C00C088000082B00190019B1B791946074A79
:10306C002C2301FB03F3134414331B68002B14BFF4
:10307C0001230023DBB2184602B07047F001002098
:10308C0010B582B001900091009B9B69002B08D178
:10309C004FF484710198FFF79FFB0198FFF761FCD7
:1030AC0013E04FF484710198FFF796FB009BDA68EC
:1030BC00009B5B6AD4180198FFF753FC03462370FE
:1030CC00009B5B6A5A1C009B5A6202B010BD00B593
:1030DC0089B003900291019201238DF81030029B6C
:1030EC000693019B0593039B5B68039A116804AAE2
:1030FC001046984700BF09B05DF804FB00B587B0D7
:10310C000190009100238DF80830009B0493019BE3
:10311C009B680393019B00225A61019B5B68019A97
:10312C00116802AA1046984700BF07B05DF804FB6F
:10313C0000B58BB0019000914FF400710198FFF72E
:10314C007CFB0346002B39D04FF492710198FFF7AA
:10315C0058FB0346002B31D04FF492710198FFF7C6
:10316C003BFB4FF401710198FFF777FB009B93F841
:10317C00293083F00103DBB2002B03D0042101982A
:10318C00FFF705FC02238DF80C300198FFF76FFB5D
:10319C0003460693009B9B690593009BDB68049395
:1031AC00009B00229A61009B0022DA61009B5B6805
:1031BC00009A116803AA1046984752E0042101981E
:1031CC00FFF73BFB0346002B4BD04FF48471019867
:1031DC00FFF717FB0346002B43D000990198FFF72C
:1031EC004FFF009B9A69009B5B6A9A4239D1009B06
:1031FC00DB69002B19D0009BDB680993009B5B6A91
:10320C000893009BDA69009B9A61009B1A69009BEA
:10321C00DA60009B0022DA61009B00225A62099A54
:10322C0008990098FFF753FF1BE0009B93F8293097
:10323C0083F00103DBB2002B03D004210198FFF7CC
:10324C00A6FB4FF401710198FFF707FB009B0022CE
:10325C009A61009B596A009BDB681A460098FFF73D
:10326C0036FF4FF48E710198FFF7CBFA0346002B13
:10327C0024D0009B5B690793009B1B6A079A9A42B8
:10328C000DD9009B93F82830DBB283F00103DBB23D
:10329C00002B04D000990198FFF70AFE0EE04FF4C2
:1032AC008E710198FFF798FA009B5B69002B05D093
:1032BC00009B5B6919460098FFF720FF4FF4A27141
:1032CC000198FFF79EFA0346002B1CD04FF4A27115
:1032DC000198FFF781FA009B93F82930002B03D05B
:1032EC0000210198FFF753FB009B9B69002B0AD030
:1032FC00009B00229A61009B596A009BDB681A466E
:10330C000098FFF7E4FE00BF0BB05DF804FB000073
:10331C0008B503490348FFF70BFF00BF08BD00BF0A
:10332C00F00100200020004082B003468DF80730E9
:10333C009DF90730002B0CDB9DF8073003F01F02C2
:10334C0005499DF907305B09012000FA02F241F8AA
:10335C00232000BF02B0704700E100E082B00346BA
:10336C008DF807309DF90730002B13DB9DF80730E3
:10337C0003F01F0209499DF907305B09012000FA8F
:10338C0002F2203341F82320BFF34F8F00BFBFF36D
:10339C006F8F00BF00BF02B0704700BF00E100E0BC
:1033AC0082B0034600918DF807309DF90730002B51
:1033BC000ADB009BDAB20C499DF907305201D2B2FC
:1033CC000B4483F800230BE0009BDAB207499DF80D
:1033DC00073003F00F03043B5201D2B20B441A76B0
:1033EC0000BF02B0704700BF00E100E000ED00E05C
:1033FC0082B00190019B03F06043B3F1005F0CBFFE
:10340C0001230023DBB2184602B0704782B0019052
:10341C00019B1B0B5BB2184602B0704700B583B022
:10342C0003460A468DF8073013468DF806309DF892
:10343C000630072B03D908496B2002F03FF99DF8A1
:10344C0006209DF9073011461846FFF7A9FF00BF6B
:10345C0003B05DF804FB00BF1089000000B583B019
:10346C0003468DF807309DF907301846FFF75CFFCF
:10347C0000BF03B05DF804FB00B583B003468DF8C4
:10348C0007309DF907301846FFF768FF00BF03B0FF
:10349C005DF804FB84B001900B46ADF80230BDF82A
:1034AC000230019A134400221A60BDF80230019ACE
:1034BC0013441B680393039B00BF04B0704782B096
:1034CC0001900B46ADF80230BDF80230019A13445E
:1034DC001B68002B14BF01230023DBB2184602B07B
:1034EC00704782B001900091019BD3F80022009BA1
:1034FC00DB431A40019BC3F8002200BF02B07047A7
:10350C0082B001900091019B009AC3F8042300BF84
:10351C0002B0704782B001900091019B009AC3F8F1
:10352C00082300BF02B0704784B00190019BD3F810
:10353C0080340393019B039AC3F88024039B1846A1
:10354C0004B0704782B00190019B0822C3F800259B
:10355C0000BF02B0704782B00190019B0022C3F8FB
:10356C00002500BF02B0704784B003900291019215
:10357C00039B029AC3F80C25039B019AC3F81425EC
:10358C0000BF04B0704700B583B001904FF0FF321C
:10359C004FF0FF310198FFF7E7FF00BF03B05DF874
:1035AC0004FB82B00190019BD3F80C35184602B095
:1035BC00704782B00190019BD3F81435184602B0C5
:1035CC00704782B00190019BD3F80835184602B0C1
:1035DC00704782B00190019BD3F81035184602B0A9
:1035EC00704784B0039002910192039B029AC3F836
:1035FC000825039B019AC3F8102500BF04B070473F
:10360C0000B583B001904FF0FF324FF0FF310198BD
:10361C00FFF7E7FF00BF03B05DF804FB82B0019039
:10362C000B468DF803309DF80330019A13440122A8
:10363C001A6000BF02B0704782B001900B468DF843
:10364C00033013468DF802309DF803209DF80230AC
:10365C001343DBB21A46019BC3F86C2500BF02B0C2
:10366C00704782B001900091019B009AC3F8242509
:10367C0000BF02B0704784B0039002910192029A8D
:10368C00039BC3F84425039B019AC3F8482500BF4C
:10369C0004B0704782B00190019BD3F84C351846AA
:1036AC0002B0704782B00190019BD3F83C351846AC
:1036BC0002B0704700B583B00190019B1B6818469F
:1036CC0000F0A4F80346002B04D10B494FF4F6701C
:1036DC0001F0F4FF019B1B681F2B02D84FF0A04395
:1036EC0006E0019B1B6803F01F02019B1A60034B51
:1036FC00184603B05DF804FB548900000003005029
:10370C0000B585B00190084611461A4603468DF85F
:10371C0003300B468DF8023013468DF8013001ABA7
:10372C001846FFF7C7FF03909DF803209DF8023061
:10373C005B001A439DF801309B001A439DF818302A
:10374C001B0242EA03019DF81C301B04019A194329
:10375C00039B02F5E07243F8221000BF05B05DF840
:10376C0004FB00B585B00390002301930023009364
:10377C000023012201210398FFF7C2FF00BF05B00F
:10378C005DF804FB00B585B003900B468DF80B304B
:10379C009DF80B30002201920022009200220021A1
:1037AC000398FFF7ADFF00BF05B05DF804FB00B553
:1037BC0085B0039000230193002300930023012282
:1037CC0000210398FFF79CFF00BF05B05DF804FBD8
:1037DC0000B585B0019001AB1846FFF76BFF039065
:1037EC00019B012202FA03F31946039800F004F836
:1037FC0000BF05B05DF804FB82B001900091019B05
:10380C00009AC3F8082500BF02B0704784B001903D
:10381C00019B5B09029300230393029B002B03D0B3
:10382C00029B012B04D007E04FF0FF33039303E01E
:10383C004FF6FF73039300BF019B03F01F0301932B
:10384C00039A019B22FA03F303F00103002B14BF2C
:10385C0001230023DBB2184604B0704700B583B0D7
:10386C0001900091009B1B68B3F1FF3F09D0009BB6
:10387C001B681846FFF7ACFF009B1B681846FFF748
:10388C0070FF009B5B68B3F1FF3F05D0009B5B684A
:10389C0000211846FFF776FF019B1A68009B9B6975
:1038AC0019461046FFF7DDFE019B1868009B597DF9
:1038BC00009B1B7D1A46FFF7BFFE019B1868009BFF
:1038CC001968009B5B681A46FFF74EFE009B1B7D38
:1038DC00012B22D1009B9B68B3F1FF3F05D0009BCD
:1038EC009B6800211846FFF74DFF009BDB68B3F186
:1038FC00FF3F09D0009BDB681846FFF769FF009B70
:10390C00DB681846FFF72DFF019B1868009BD968F0
:10391C00009B9B681A46FFF764FE00BF03B05DF87E
:10392C0004FB000000B583B001900B468DF803300A
:10393C00019B1B684FF488711846FFF7ABFD019B88
:10394C001B684FF490711846FFF7A4FD019B1B6890
:10395C004FF492711846FFF79DFD019B1B684FF4C5
:10396C00A2711846FFF796FD019B1B684FF4AC71D2
:10397C001846FFF78FFD019B1B680F491846FFF790
:10398C00BFFD019B1B681846FFF740FD03461A4616
:10399C009DF8033019461046FFF740FD019B1B684C
:1039AC001846FFF733FD03461846FFF757FD00BFD7
:1039BC0003B05DF804FB00BF1003420000B583B0F8
:1039CC000190019B1B6808491846FFF7A3FD019B5A
:1039DC001B681846FFF71AFD03461846FFF74CFD07
:1039EC0000BF03B05DF804FB1003420000B587B0C4
:1039FC000190019B1B681846FFF7D3FD0590019BB6
:103A0C001B681846FFF7D5FD0490019B1B681846F0
:103A1C00FFF7D7FD0390019B1B681846FFF7D9FDF4
:103A2C000290019B1B681846FFF7ADFD019B1B68BC
:103A3C001846FFF7E5FD059BB3F1FF3F02D0059853
:103A4C00FFF7B5FE049BB3F1FF3F02D00498FFF7DC
:103A5C00AEFE029BB3F1FF3F02D00298FFF7A7FE28
:103A6C00039BB3F1FF3F02D00398FFF7A0FE00BF0A
:103A7C0007B05DF804FB000000B587B0039002911D
:103A8C000192029B002B03D12B49CF2001F016FE93
:103A9C00039B1B791A461346DB0013449B00274AF1
:103AAC001344049300230593049B93F82030002BBC
:103ABC0003D008230593059B3AE0039B1A68039BEC
:103ACC001B7919461E4B53F8213019461046FEF748
:103ADC0083FD0346002B03D011230593059B27E0A0
:103AEC0002990398FFF7BAFE049B019A5A60029B55
:103AFC001A69049B1A60049B5B68002B05D0029B1F
:103B0C001B7F19460398FFF70DFF039B1B68184694
:103B1C00FFF718FD049B00229A61049B0022DA61D6
:103B2C00049B00225A61049B012283F82020059BF0
:103B3C00184607B05DF804FBA08900001C020020A9
:103B4C00F089000000B585B00190019B1B791A46E5
:103B5C001346DB0013449B002A4A13440393019B36
:103B6C001B680293039B5B68002B02D00198FFF744
:103B7C0025FF20210298FFF7B4FC039B9B69002BC7
:103B8C0008D04FF4A2710298FFF784FC042102982C
:103B9C00FFF744FD4FF4AC710298FFF77BFC0C214E
:103BAC000298FFF73BFD00BF4FF4AC710298FFF792
:103BBC0086FC034683F00103DBB2002BF4D1039B9C
:103BCC009B69002B0AD04FF4A2710298FFF777FC87
:103BDC00034683F00103DBB2002BE5D10298FFF71B
:103BEC00BAFC0198FFF702FF0298FEF72FFD039B2A
:103BFC00002283F82020039B00225A6000BF05B0EE
:103C0C005DF804FB1C02002000B589B00390029102
:103C1C000192039B1B791A461346DB0013449B004D
:103C2C00574A13440593059B93F82030012B04D07D
:103C3C00544940F2531001F041FD029B002B04D17A
:103C4C0050494FF4AA7001F039FD019B002B04D1AF
:103C5C004C4940F2551001F031FD039B1B79002BB0
:103C6C0003D1019BB3F5803F04D346494FF4AB70AD
:103C7C0001F024FD0298FFF7BBFB034683F0010320
:103C8C00DBB2002B03D010230793079B73E0039840
:103C9C0000F07AF80346002B03D011230793079BFF
:103CAC0069E0059B019A5A61059B029A9A60002370
:103CBC000793039B1B684FF490711846FFF7EAFBC0
:103CCC00039B1B684FF4AC711846FFF7E3FB039B97
:103CDC001868059B9968059B5B691A46FFF7CBFC36
:103CEC00039B1B6808211846FFF798FC059B5B6833
:103CFC00002B3FD1039B1B684FF490711846FFF7C4
:103D0C00DEFB03468DF81B30039B1B684FF4AC7134
:103D1C001846FFF7D4FB03468DF81A309DF81B307C
:103D2C0083F00103DBB2002B06D09DF81A3083F030
:103D3C000103DBB2002BDDD19DF81A30002B02D031
:103D4C000F23079313E0039B1B680C211846FFF706
:103D5C0065FC00BF039B1B684FF4AC711846FFF762
:103D6C00AEFB034683F00103DBB2002BF2D1059BC3
:103D7C0000225A61079B184609B05DF804FB00BF8E
:103D8C001C020020A089000082B00190019B1B79CD
:103D9C001946084A0B46DB000B449B0013441433B2
:103DAC001B68002B14BF01230023DBB2184602B0A2
:103DBC00704700BF1C02002000B589B0039002912F
:103DCC00019201238DF81030029B0693019B059301
:103DDC00039B5B68039A116804AA1046984700BFBE
:103DEC0009B05DF804FB00B587B001900091002389
:103DFC008DF80830009B0493019B9B680393019BF7
:103E0C0000225A61019B5B68019A116802AA104654
:103E1C00984700BF07B05DF804FB00B589B001906E
:103E2C0000914FF492710198FFF749FB0346002B68
:103E3C0022D04FF492710198FFF72CFB02238DF8DE
:103E4C0008300198FFF770FB034605930198FFF7C4
:103E5C0029FC03460493009BDB680393009B002220
:103E6C009A61009B0022DA61009B5B68009A1168E2
:103E7C0002AA104698473BE04FF488710198FFF76F
:103E8C001EFB0346002B33D04FF488710198FFF7CB
:103E9C0001FB0198FFF706FC0790009B9B69079AB2
:103EAC009A4225D1009BDB69002B17D0009BDB6865
:103EBC00069320210198FFF714FB009BDA69009B05
:103ECC009A61009B1A69009BDA60009B0022DA6100
:103EDC00069A07990098FFF76FFF09E0009B0022F4
:103EEC009A61009BDB681A4607990098FFF764FFFC
:103EFC004FF4A2710198FFF7E2FA0346002B18D099
:103F0C004FF4A2710198FFF7C5FA009B9B69002B37
:103F1C000FD0009B00229A61009B0022DA6101986D
:103F2C00FFF7C0FB0146009BDB681A460098FFF7C1
:103F3C0043FF4FF490710198FFF7C1FA0346002B31
:103F4C0014D04FF490710198FFF7A4FA0C2101984A
:103F5C00FFF764FB009B5B69002B07D00198FFF710
:103F6C0099FB034619460098FFF73DFF4FF4AC71DF
:103F7C000198FFF7A4FA0346002B10D04FF4AC7154
:103F8C000198FFF787FA009B5B69002B07D001981B
:103F9C00FFF780FB034619460098FFF724FF00BF8C
:103FAC0009B05DF804FB000008B503490348FFF7AE
:103FBC0034FF00BF08BD00BF1C02002000200040E1
:103FCC0084B003468DF807309DF807305B08DBB2F0
:103FDC001A460D4B9B5C8DF80F309DF8073003F0A3
:103FEC000103002B04D09DF80F301B09DBB204E059
:103FFC009DF80F3003F00F03DBB28DF80E309DF8F7
:10400C000E30184604B070477802002084B0034686
:10401C000A468DF8073013468DF806309DF80730A8
:10402C0003F00103002B01D00F2300E0F0238DF8E7
:10403C000F309DF8073003F00103002B04D09DF8DE
:10404C0006301B01DBB201E09DF806308DF80E3016
:10405C009DF807305B08DBB21A46114B9A5C9DF851
:10406C0007305B08DBB219469DF80F301340DAB20B
:10407C000B4B5A549DF807305B08DBB21A46084BC1
:10408C009A5C9DF807305B08DBB219469DF80E3040
:10409C001343DAB2024B5A5400BF04B0704700BF4E
:1040AC007802002000B585B003468DF80730002358
:1040BC00039310E00F4B1A68039BDB00134402932D
:1040CC00029B1B789DF807209A4201D1029B0DE0C0
:1040DC00039B01330393084B1B781A46039B9342B3
:1040EC00E8DB0649882001F0E9FA0023184605B000
:1040FC005DF804FB4002002044020020008A00000E
:10410C0000B585B003460A468DF8073013468DF886
:10411C0006309DF807301846FFF7C4FF0390039B49
:10412C00002B0BD0039B5B68002B07D0039B5B68B9
:10413C009DF806109DF807201046984700BF05B063
:10414C005DF804FB2DE9F04F85B003460A468DF867
:10415C000F3013468DF80E309DF80F301846FFF7D0
:10416C002FFF0346042B00F2B48001A252F823F077
:10417C0091410000F741000013420000434200004F
:10418C00594200009DF80E30002B00F09F809DF8E6
:10419C000F3001211846FFF739FF002000F066FEB2
:1041AC009DF80F104FF001024FF00003A1F1200415
:1041BC00C1F1200003FA01F702FA04F4274322FAB2
:1041CC0000F0074302FA01F6444BD3E9002346EA18
:1041DC00020100913B430193404BDDE90012C3E91E
:1041EC000012002000F056FE70E09DF80E30002BFF
:1041FC0001D0022200E000229DF80F301146184633
:10420C00FFF704FF65E09DF80E30002B0CD09DF8F5
:10421C000F3003211846FFF7F9FE9DF80F300121EE
:10422C001846FFF76DFF54E09DF80F30012118463A
:10423C00FFF7ECFE4DE09DF80E30002B48D19DF8B9
:10424C000F3004211846FFF7E1FE41E09DF80E30D7
:10425C00002B06D09DF80F3003211846FFF7D6FE31
:10426C0037E09DF80F3000211846FFF7CFFE9DF880
:10427C000F3000211846FFF743FF002000F0F6FD39
:10428C009DF80F104FF001024FF00003A1F1200632
:10429C00C1F1200003FA01F502FA06F6354322FAC1
:1042AC0000F0054302FA01F46FEA04086FEA05090D
:1042BC000A4BD3E9002308EA020A09EA030B074B6D
:1042CC00C3E900AB002000F0E5FD02E000BF00E018
:1042DC0000BF00BF05B0BDE8F08F00BF700200202A
:1042EC0000B583B00648074B1B685B0800221946D3
:1042FC0000F036FD019000BF03B05DF804FB00BF79
:10430C00500200204802002000B587B00190002325
:10431C00059328E01C4B1A68059BDB00134404939F
:10432C00049B1B781846FEF701F803468DF80F30F6
:10433C00049B5B78012B0CBF01230023DBB21A46D4
:10434C009DF80F309A420CBF012300238DF80E30DC
:10435C00049B1B789DF80E2011461846FFF7F2FEC1
:10436C00059B01330593094B1B781A46059B934219
:10437C00D0DB074BD3E90023134301D0FFF7B0FF89
:10438C0000BF07B05DF804FB40020020440200208F
:10439C007002002000B585B001900B468DF80330FB
:1043AC00019BDBB21846FFF77DFE0390039B1B7845
:1043BC001846FDF7BBFF03468DF80B30039B5B786B
:1043CC00012B0CBF01230023DBB21A469DF80B30E6
:1043DC009A420CBF012300238DF80A309DF80A3055
:1043EC00002B06D0054BD3E90023134301D1FFF773
:1043FC0077FF00BF05B05DF804FB00BF7002002022
:10440C0000B58BB003900B4601928DF80B30019BDD
:10441C00092B01D8072367E0FDF77CFE034683F0E8
:10442C000103DBB2002B09D0FDF710FE0990099BAC
:10443C000893089B002B01D0089B55E02C4A039B4A
:10444C0013602C4A9DF80B3013702B4A019B1360A0
:10445C0020220021294803F0F1FE29494FF00002E7
:10446C004FF00003C1E9002331E09DF80B30DB0075
:10447C00039A1344079303238DF8143000238DF80B
:10448C0015309DF816306FF300038DF816309DF83B
:10449C0016306FF341038DF816309DF816306FF31C
:1044AC0082038DF81630079B9B788DF81530079B8F
:1044BC001B78184605AB134A1946FDF737FE0990D1
:1044CC00099B0693069B002B01D0069B0CE09DF8E4
:1044DC000B305A1E8DF80B20002BC6D10A4A002136
:1044EC000A4800F009FC034618460BB05DF804FBC3
:1044FC0040020020440200204802002078020020E4
:10450C0070020020A143000015430000508A0000F7
:10451C0000B583B0114B1B68002B04D1104940F23D
:10452C00351001F0CBF8002301930CE00B4B1A680B
:10453C00019BDB0013441B7801211846FDF772FE2A
:10454C00019B01330193074B1B781A46019B934245
:10455C00ECD30023184603B05DF804FB40020020A6
:10456C00008A00004402002086B003900291019260
:10457C0001238DF817309DF81730204A039B1360E8
:10458C001E4A029B53601D4A019B9360039B44F29D
:10459C000102934212D0039B44F20202934220D1B7
:1045AC00019B164AD360154BDB681B68134A936159
:1045BC00124BDB685B68114AD36112E0019B0F4A16
:1045CC0013610E4B1B699B680C4A53610B4B1B69A7
:1045DC001B680A4A9361094B1B695B68074AD361E4
:1045EC0000BF72B600BF00BF9DF81730DBB2002BC6
:1045FC00FAD162B600BF00BF06B070479802002027
:10460C0000B583B002900091019244F20100714612
:10461C006A4600F003F803B000BD00BF30B58BB0A4
:10462C0007900691059272B600BF03F07FF902F075
:10463C0041FF0346002BFAD1079B44F2010293423F
:10464C0016D0079B44F2020293423ED1059B09937C
:10465C002C4A2D4BD31ADB081B0443F00100099B99
:10466C005B681A46099B1B68284902F0E6FE39E094
:10467C00059B0893234A244BD31ADB081B0443F0F5
:10468C000104089B9D68089B9B68184602F0E6F89D
:10469C0003461846089B5B681946089B1B68069ADC
:1046AC0002920193009103462A461949204602F0D2
:1046BC00D8FE144A144BD31ADB081B0443F0010335
:1046CC001449184602F09AFE0CE00E4A0E4BD31A0F
:1046DC00DB081B0443F00103069A0F49184602F04D
:1046EC009BFE00BF0D4B1B6803F00103002B00D099
:1046FC0000BE059A06990798FFF736FF00BF0BB06E
:10470C0030BD00BFDC820000BC820000548A000077
:10471C00708A0000988A0000AC8A0000F0ED00E07E
:10472C002DE9F04383B0144800F09FFF03460022AC
:10473C001C461546114BD3E9002314EB020845EB3C
:10474C000309CDE900890E4BD3E90023DDE9000113
:10475C00904271EB030307D2DDE9002312F180765E
:10476C0043F10007CDE90067DDE900231046194647
:10477C0003B0BDE8F08300BF64000020C00200203D
:10478C00C802002088B001900091019B0793009B08
:10479C000693079BD3E90223CDE90423069BD3E9B7
:1047AC000223CDE90223DDE90423DDE90201904275
:1047BC0071EB03032CBF01230023DBB2184608B0B6
:1047CC0070470000F0B585B00190019B5B69002B30
:1047DC0003D12B49A22000F071FF00238DF80F307C
:1047EC00284B1B78002B45D0019B002B42D0019B02
:1047FC001B7FDBB2002B3DD0FFF792FF019BD3E96F
:10480C000223904271EB03032CD3019B1B69002BF9
:10481C0002D1019B00221A77019B5B69019A926974
:10482C0010469847019B1B69002B23D0019B1B7FD3
:10483C00DBB2002B1ED0019BD3E90223019909693D
:10484C0000200C460546161943EB0507019BC3E9EE
:10485C000267019B19460C4801F05AFF01238DF8A1
:10486C000F3007E0019B1946074801F051FF012367
:10487C008DF80F309DF80F30184605B0F0BD00BF15
:10488C00D08A0000BC020020248B0000F0B589B057
:10489C00019000910D230793009B00221A70019B3D
:1048AC00D3E90245FFF73CFF02460B46A61A65EB1F
:1048BC000307CDE90467DDE90423012A73F1000342
:1048CC001BDB049BB3F5350F05D300F0A9FA0246A8
:1048DC00154B134403E0019BD3E9022313460393C6
:1048EC004FF49603039A0021104800F0B1FD079095
:1048FC00079B002B05D1012313E000210B4800F08E
:10490C007FFE079B0D2B07D10198FFF75BFF03463A
:10491C001A46009B1A7003E00549F52000F0CEFE04
:10492C000023184609B0F0BDFFFFB400640000205E
:10493C00D08A000000B583B0044801F023FF019039
:10494C00019B184603B05DF804FB00BF248B0000EC
:10495C0000B583B0044801F037FF0190019B184665
:10496C0003B05DF804FB00BF248B000000B583B0DE
:10497C00FFF7E0FF0190019B002B02D0019B00226E
:10498C001A77019B002BF3D100BF00BF03B05DF879
:10499C0004FB0000054BD3E9002312F1807043F1B6
:1049AC000001024BC3E9000100BF7047C0020020A8
:1049BC0010B582B00190124B1B68002B1DD00198D2
:1049CC0000F053FE04460021019800F03FFE034620
:1049DC001946204600F018FA0346B3F5960F04D397
:1049EC0008494FF4957000F069FE054B1B6818469A
:1049FC00FFF7E8FE024B00221A6000BF02B010BDA8
:104A0C00B8020020D08A000000B583B00190FFF7F7
:104A1C0087FE02460B460349C1E9002300BF03B0E1
:104A2C005DF804FBC802002000B585B00190FFF7CB
:104A3C008FFF039000238DF80B30039B002B48D085
:104A4C002B4B1B68002B03D101238DF80B3019E085
:104A5C00039BD3E90201264B1B68D3E90223904246
:104A6C0071EB03030ED201238DF80B30204B1B6826
:104A7C001B7FDBB2002B05D01D4B1B6819461D4854
:104A8C0001F046FE9DF80B30002B2AD0FFF752FFA9
:104A9C0003900DF10A0319460398FFF7F7FE03463E
:104AAC00002B12D0124B1B68002B02D1019800F086
:104ABC00DBFB0F4A039B13609DF80A3083F0010364
:104ACC00DBB2002BB3D000BF0EE0094B00221A6002
:104ADC00ADE7074B1B68002B05D1019800F0DAFB02
:104AEC0001E000BF00E000BF00BF05B05DF804FBB3
:104AFC00B8020020248B000000B587B001902C4A2E
:104B0C0003AB1946104600F0C4FE059048E0059B27
:104B1C001B78022B2ED0022B32DC002B02D0012B67
:104B2C0014D02DE0059B5B681B7FDBB283F0010387
:104B3C00DBB2002B26D0059B5B6801221A77059B04
:104B4C005B6819461B4801F0E3FD1BE0059B5A68A6
:104B5C00194B1B689A4203D1174B00221A6012E0C2
:104B6C00059B5B681946134801F042FE03468DF81D
:104B7C00133008E0FFF7FAFE104B01221A7002E026
:104B8C0000BF00E000BF0A4A03AB1946104600F014
:104B9C0099FE074A03AB1946104600F07AFE0590C1
:104BAC00059B002BB3D100BF00BF07B05DF804FB21
:104BBC0028030020248B0000B8020020BC02002037
:104BCC0000B583B00190019800F00DFD0346002B59
:104BDC0001D0FFF7DFFE0021019800F022FD034613
:104BEC00002B02D00198FFF7E3FE0121019800F0A1
:104BFC0018FD0346002B02D00198FFF705FF019822
:104C0C00FFF77AFF0198FFF70FFF00BF03B05DF8C5
:104C1C0004FB000008B5024800F034FD00BF08BDDD
:104C2C006400002000B585B0034600918DF8073074
:104C3C00114A02AB1946104600F0FEFD0390039B8F
:104C4C00002B13D0039B9DF807201A70039B009A2E
:104C5C005A60094A02AB1946104600F006FE03469C
:104C6C00002B01D0FFF7D6FF002300E004231846E9
:104C7C0005B05DF804FB00BF2803002000B583B02D
:104C8C00164B1B680093164808235822154900F050
:104C9C00A0FD0190019B002B01D0019B19E06B46FC
:104CAC00114A1946114800F061FA0190019B002B42
:104CBC0001D0019B0DE001210C4800F083FC012385
:104CCC000B4A0121094800F0FBFA0A4B01221A7029
:104CDC00019B184603B05DF804FB00BF208B00005D
:104CEC0028030020D0020020CD4B000064000020DF
:104CFC00FFFF7F00BC02002000B587B003900B467D
:104D0C0001928DF80B30039B002B04D1134940F218
:104D1C002E2000F0D3FC019B002B04D10F4940F254
:104D2C002F2000F0CBFC019B002B01D1072310E0BE
:104D3C00039B1B680593059B019A5A619DF80B30E8
:104D4C00012B0CBF01230023DBB21A46059B1A6111
:104D5C000023184607B05DF804FB00BFD08A0000A2
:104D6C00F0B587B0039002910192039B002B04D104
:104D7C00164940F23E2000F0A1FC039B0593059BD5
:104D8C001B7FDBB2002B01D000231CE0059B019A9A
:104D9C009A61FFF7C5FC02460B46029900200C46AF
:104DAC000546161943EB0507059BC3E90267059BEE
:104DBC001B69002B02D0059B029A1A6105990020F1
:104DCC00FFF730FF0346184607B0F0BDD08A00004D
:104DDC0000B585B00190019B002B04D109494FF41B
:104DEC00157000F06BFC019B0393039B00221A7758
:104DFC0003990120FFF716FF0346184605B05DF82E
:104E0C0004FB00BFD08A000082B001900091019A8F
:104E1C00009BD31A23F07F43184602B07047000062
:104E2C0008B5034800F021FC0346184608BD00BF36
:104E3C006400002072B600BF034B1B680133024AAA
:104E4C00136000BF704700BF3C030020064B1B687B
:104E5C00013B054A1360044B1B68002B01D162B661
:104E6C0000BF00BF704700BF3C03002000B583B0FB
:104E7C00019000F025F80346012B03D00449432090
:104E8C0000F01CFCFFF7D6FF00BF03B05DF804FB7D
:104E9C00308B000000B583B003468DF8073000F06E
:104EAC000FF80346012B03D00449512000F006FCF7
:104EBC00FFF7CCFF00BF03B05DF804FB308B0000A4
:104ECC0084B0EFF305830193019BC3F308030393B1
:104EDC00039B002B0DD1EFF314830093009B0293E3
:104EEC00029B03F00103002B0CBF01230023DBB258
:104EFC0000E00123184604B07047000082B003465E
:104F0C008DF807309DF90730002B0CDB9DF807302E
:104F1C0003F01F0205499DF907305B09012000FAD7
:104F2C0002F241F8232000BF02B0704700E100E01C
:104F3C0082B003468DF807309DF90730002B0DDB4E
:104F4C009DF8073003F01F0206499DF907305B09F5
:104F5C00012000FA02F2403341F8232000BF02B0D6
:104F6C00704700BF00E100E082B0034600918DF86D
:104F7C0007309DF90730002B0ADB009BDAB20C4995
:104F8C009DF907305201D2B20B4483F800230BE099
:104F9C00009BDAB207499DF8073003F00F03043B7E
:104FAC005201D2B20B441A7600BF02B0704700BF58
:104FBC0000E100E000ED00E000B583B003460A46D6
:104FCC008DF8073013468DF806309DF80630072B08
:104FDC0003D908496B2000F071FB9DF806209DF960
:104FEC00073011461846FFF7BFFF00BF03B05DF84E
:104FFC0004FB00BF888B000000B583B003468DF81E
:10500C0007309DF907301846FFF778FF00BF03B053
:10501C005DF804FB00B585B00190019B002B0AD014
:10502C00074B43F001030393019B9B010293039BEA
:10503C000298984700E000BF05B05DF804FB00BF84
:10504C00B08C000084B0039002910192039B029AF1
:10505C0002F5A872019943F8221000BF04B0704702
:10506C0082B001900091019B009A02F5A87253F84E
:10507C002230184602B0704782B001900091019B1B
:10508C00009AC3F8042300BF02B0704782B00190AD
:10509C000091019B009AC3F8082300BF02B070472F
:1050AC0082B001900B46ADF80230BDF80230019A87
:1050BC0013441B68184602B0704784B001900B462D
:1050CC00ADF80230BDF80230019A134400221A6088
:1050DC00BDF80230019A13441B680393039B00BF75
:1050EC0004B0704782B00190019BD3F80435184688
:1050FC0002B0704700B583B001900091009BB3F5EE
:10510C00805F04D306494FF4BE7000F0D7FA019BC0
:10511C00009AC3F8082500BF03B05DF804FB00BF7C
:10512C00CC8B000082B001900B468DF803309DF8BB
:10513C000320019B13441A460123136000BF02B0E5
:10514C00704782B001900091019B009AC3F84423F0
:10515C0000BF02B0704782B001900091019B009A91
:10516C00C3F8482300BF02B07047000000B587B0F9
:10517C00039002910192039B002B03D133495520DC
:10518C0000F09CFA029B002B03D13049562000F012
:10519C0095FA019B002B03D12C49572000F08EFA75
:1051AC00039B5B7919462A4A019B42F82130039BE9
:1051BC005B79284ADB0013441B79002B0ED00823A3
:1051CC000593254A254BD31ADB081B0443F0020335
:1051DC002349184602F012F9059B32E0039B1A682A
:1051EC00029B1B8819461046FFF784FF039B93F91B
:1051FC000420029B9B7819461046FFF7DDFE039BAB
:10520C0093F904301846FFF7F7FE039B5B79114ABC
:10521C00DB00134401221A71039B5B7919460D4A7A
:10522C00039B42F83130002305930B4A0B4BD31AE6
:10523C00DB081B0443F003030A49184602F0DEF8AE
:10524C00059B184607B05DF804FB00BF108C0000EE
:10525C004003002044030020EC820000BC820000CC
:10526C005C8C0000808C000000B583B00190019B29
:10527C00002B03D10649872000F020FA019B1B6804
:10528C0000211846FFF74EFF00BF03B05DF804FB8A
:10529C00108C000000B583B00190019B002B03D152
:1052AC0006498D2000F00AFA019B1B680421184660
:1052BC00FFF738FF00BF03B05DF804FB108C000053
:1052CC0000B587B00390029101928DF80330039BD7
:1052DC00002B03D12149962000F0F0F94FF48032D5
:1052EC00029B02FA03F30593029B50339BB29B0083
:1052FC00ADF81230019B23F07F430193039B1B6895
:10530C0005991846FFF7C2FE039B1B6805991846C2
:10531C00FFF721FF039B1B68BDF8122011461846AE
:10532C00FFF7CBFE039B1B68019A02991846FFF707
:10533C0089FE039B1B6805991846FFF702FF9DF831
:10534C000330002B05D0039B1B6805991846FFF70B
:10535C0093FE00BF07B05DF804FB00BF108C00008B
:10536C0000B585B00390029113468DF80730039B6E
:10537C00002B03D10B49A92000F0A0F9039B1B685B
:10538C0002991846FFF7DDFE9DF80730002B05D07B
:10539C00039B1B6802991846FFF76EFE00BF05B011
:1053AC005DF804FB108C000000B583B001900091F7
:1053BC00019B002B03D10A49B32000F07FF9019B1C
:1053CC001B6800991846FFF7C6FE019B1B680099E5
:1053DC001846FFF75BFE00BF03B05DF804FB00BF8F
:1053EC00108C000000B583B001900B46ADF8023074
:1053FC00019B002B03D10F49BA2000F05FF9019BF0
:10540C001B68BDF8022011461846FFF749FE0346FB
:10541C00002B09D0019B1B68BDF8022011461846D1
:10542C00FFF74BFE012300E00023184603B05DF8A4
:10543C0004FB00BF108C000082B001900091019A17
:10544C00009BD31A23F07F43184602B0704700002C
:10545C0000B58BB00390029101920093039B002B3B
:10546C0003D15749CD2000F029F94FF48032029B2B
:10547C0002FA03F30993029B50339BB29B00ADF8E5
:10548C002230019B23F07F43019309990398FFF786
:10549C008BFF039B1B681846FFF724FE0790039BAA
:1054AC001B6802991846FFF7DBFD0690039B1B68EF
:1054BC00079A02991846FFF7C5FD039B1B68BDF8B8
:1054CC00222011461846FFF7F8FD07990698FFF7BA
:1054DC00B3FF0346012B0AD11020FFF79BFD039B62
:1054EC001B68BDF8222011461846FFF7E6FD039B0A
:1054FC001B681846FFF7F6FD079007990198FFF710
:10550C009BFF0590039B1B6809991846FFF719FE32
:10551C00059B012B15D1039B1868019B01331A467F
:10552C000299FFF78FFD1020FFF774FD039B1B689A
:10553C001846FFF7D7FD0246079B934235D00D2343
:10554C0039E0039B1B68019A02991846FFF77AFD14
:10555C00039B1B681846FFF7C5FD0790019B013B99
:10556C0007991846FFF768FF0590009BC3F1FF13DE
:10557C0003F57F43059A9A4201D90D231BE0059B45
:10558C00002B12D1039B1868019B01331A46029918
:10559C00FFF758FD039B1B681846FFF7A3FD024657
:1055AC00079B934201D00D2305E001220999039832
:1055BC00FFF7D6FE002318460BB05DF804FB00BFC6
:1055CC00108C000000B583B001900B468DF80330B1
:1055DC009DF803301A4602210198FFF7C1FE00BF67
:1055EC0003B05DF804FB00B583B001904FF48271F9
:1055FC000198FFF7F7FE0346184603B05DF804FB6D
:10560C0000B583B0019000914FF48032009B02FAF8
:10561C0003F319460198FFF7C7FE00BF03B05DF80E
:10562C0004FB00B585B001900091009B50339BB2F8
:10563C009B00ADF80E30BDF80E3019460198FFF7FF
:10564C00D1FE0346184605B05DF804FB00B583B0E7
:10565C0001900091019B1B6800991846FFF700FD13
:10566C000346184603B05DF804FB00B583B0019007
:10567C00019B1B681846FFF735FD0346184603B01F
:10568C005DF804FB00B583B00190019B93F90430E5
:10569C001846FFF74DFC00BF03B05DF804FB00009B
:1056AC0008B5044B1B68044A12681046984700BFA3
:1056BC0008BD00BF400300204403002000B585B0A6
:1056CC0003460091ADF80630BDF806300293009BFE
:1056DC00039302AB1A46002144F20200FEF79EFF30
:1056EC0000BF05B05DF804FB86B001900091019BF2
:1056FC0053E8011F8AB2D88902449889824228BF94
:10570C00121A1889824202BFBFF32F8F002307E0C1
:10571C00C2EA010243E801200028E9D14FF001035D
:10572C008DF80F30059002910492029A009B1A603A
:10573C009DF80F30DBB2184606B0704784B001906C
:10574C00019951E8013FC3EA034341E80132002AC1
:10575C00F7D10392029300BF04B0704786B001905A
:10576C000091019B53E8021F1FFAA1F2D8888242D4
:10577C0002BFBFF32F8F00230DE0D8890244988914
:10578C00824228BF121AC1EA024243E802200028D2
:10579C00E8D14FF001038DF80F300590029104927F
:1057AC00029A009B1A609DF80F30DBB2184606B0C7
:1057BC00704784B00190019951E8023FC3EA23433A
:1057CC0041E80232002AF7D10392029300BF04B0E1
:1057DC00704784B00390029111461A460B46ADF8FF
:1057EC0006301346ADF80430029B002B01D10E237A
:1057FC001FE0BDF80630BDF80420B3FBF2F101FB4D
:10580C0002F29B1A9BB2002B01D0092311E0039BDF
:10581C00029A1A60039B00225A60039B00229A6032
:10582C00039BBDF806209A81039BBDF80420DA8106
:10583C000023184604B0704700B585B00190009164
:10584C00009B19460198FFF74FFF0346002B07D02A
:10585C00019B1B68009A128813440393039B00E07E
:10586C000023184605B05DF804FB00B583B0019029
:10587C000091009B1A88009B5B889A4204D1019886
:10588C00FFF75CFF012300E00023184603B05DF82E
:10589C0004FB00B585B001900091009B194601985E
:1058AC00FFF75CFF0346002B07D0019B1B68009A97
:1058BC00528813440393039B00E00023184605B061
:1058CC005DF804FB00B583B001900091009B1A8831
:1058DC00009B5B889A4204D10198FFF76AFF012371
:1058EC0000E00023184603B05DF804FB10B487B049
:1058FC0001900091019B009A53E8004F104643E839
:10590C00000191F0000FF7D1059404900391059BD1
:10591C00184607B05DF8044B704710B487B001907F
:10592C000091019B009A53E8004F44EA020043E8BF
:10593C00000191F0000FF6D1059404900391049BA3
:10594C00184607B05DF8044B704710B487B001904F
:10595C000091019B009A53E8004F04EA020043E8CF
:10596C00000191F0000FF6D1059404900391059B72
:10597C00184607B05DF8044B704710B487B001901F
:10598C000091019B009A53E8004F04EB020043E89E
:10599C00000191F0000FF6D1059404900391049B43
:1059AC00184607B05DF8044B704710B487B00190EF
:1059BC000091019B009A53E8004FA4EB020043E8CE
:1059CC00000191F0000FF6D1059404900391049B13
:1059DC00184607B05DF8044B704700B583B00190D2
:1059EC0001210198FFF799FF0346184603B05DF8B3
:1059FC0004FB00B583B0019000210198FFF7A5FFCF
:105A0C000346184603B05DF804FB000000B583B0F4
:105A1C0001900B468DF80330019B002B03D10849F4
:105A2C00E820FFF74BFE019BDA689DF803300199E3
:105A3C00098A01FB03F31344184603B05DF804FB19
:105A4C00B88C000000B583B001900091019B002B35
:105A5C0003D10849F520FFF731FE009B019AD2686B
:105A6C009B1A019A128AB3FBF2F3DBB2184603B00D
:105A7C005DF804FBB88C000000B585B00190019B6B
:105A8C00002B01D10E234CE0019B1B68002B03D192
:105A9C002649FF20FFF712FE019B5B68002B04D107
:105AAC0022494FF48070FFF709FE019B9B68002B85
:105ABC0004D11E4940F20110FFF700FE019BDB6888
:105ACC00002B04D119494FF48170FFF7F7FD019BAE
